:100000000C9462000C948A000C948A000C948A0070
:100010000C948A000C948A000C948A000C948A0038
:100020000C948A000C948A000C948A000C948A0028
:100030000C948A000C948A000C948A000C948A0018
:100040000C9455030C948A000C94C5030C949F03E4
:100050000C948A000C948A000C948A000C948A00F8
:100060000C948A000C948A000000000024002700F1
:100070002A000000000023002600290000000000E4
:10008000250028002B0004040404040404040202D4
:100090000202020203030303030301020408102007
:1000A0004080010204081020010204081020000012
:1000B0000008000201000003040700000000000027
:1000C0000000960611241FBECFEFD8E0DEBFCDBFE3
:1000D00023E0A2E6B2E001C01D92AC31B207E1F725
:1000E00012E0A0E0B1E0ECE2F2E102C005900D9276
:1000F000A236B107D9F710E0C2E6D0E004C02197DC
:10010000FE010E941C07C136D107C9F70E94F70300
:100110000C9414090C940000CF92DF92EF92FF929E
:100120006B017C01E0918B02F0918C0282E0808374
:10013000C11481EED806E104F104A1F060E079E099
:100140008DE390E0A70196010E94FA062150310943
:10015000410951095695479537952795211580E115
:100160003807A8F0E0918B02F0918C02108260E8D1
:1001700074E88EE190E0A70196010E94FA062150F2
:100180003109410951095695479537952795E091D1
:100190008702F09188023083E0918902F0918A020F
:1001A000208310929302E0918F02F091900286E0FA
:1001B0008083E0918D02F0918E0280818061808346
:1001C000E0918D02F0918E02808188608083E091C1
:1001D0008D02F0918E02808180688083E0918D0293
:1001E000F0918E0280818F7D8083FF90EF90DF9071
:1001F000CF900895833081F028F4813099F08230D7
:10020000A9F008958730A9F08830C9F08430B1F49E
:10021000809180008F7D03C0809180008F778093D4
:100220008000089584B58F7784BD089584B58F7D4F
:10023000FBCF8091B0008F778093B00008958091BC
:10024000B0008F7DF9CF1F93CF93DF93E1EBF0E008
:100250009491EDE9F0E0D491E9E8F0E0C491CC2389
:10026000B9F0182F992319F0892F0E94FA00EC2F6A
:10027000F0E0EE0FFF1FE458FF4FA591B4918FB748
:10028000F894EC91111108C0D095DE23DC938FBF58
:10029000DF91CF911F910895DE2BF8CF3FB7F894EF
:1002A0008091770290917802A0917902B0917A02C0
:1002B00026B5A89B05C02F3F19F00196A11DB11DC1
:1002C0003FBFBA2FA92F982F8827BC01CD01620FFD
:1002D000711D811D911D42E0660F771F881F991FB8
:1002E0004A95D1F708958F929F92AF92BF92CF9285
:1002F000DF92EF92FF920E944E014B015C0184E677
:10030000C82ED12CE12CF12C0E944E0168197909DC
:100310008A099B09683E734081059105A8F321E095
:10032000C21AD108E108F10888EE880E83E0981E11
:10033000A11CB11CC114D104E104F10429F7FF9000
:10034000EF90DF90CF90BF90AF909F908F900895E7
:100350002FB7F894609173027091740280917502C6
:10036000909176022FBF0895AF92BF92CF92DF9205
:10037000EF92FF920F931F93CF93DF936C017B015A
:100380008B01040F151FEB015E01AE18BF08C017EB
:10039000D10759F06991D601ED91FC910190F0815E
:1003A000E02DC6010995892B79F7C501DF91CF9121
:1003B0001F910F91FF90EF90DF90CF90BF90AF9083
:1003C0000895FC01538D448D252F30E0842F90E05B
:1003D000821B930B541710F0CF9608950197089540
:1003E000FC01918D828D981761F0A28DAE0FBF2F09
:1003F000B11D5D968C91928D9F5F9F73928F90E05F
:1004000008958FEF9FEF08950F931F930E94A80107
:100410006093830270938402809385029093860296
:100420008BE792E00E94F00197FF1DC00E94A80197
:1004300000918302109184022091850230918602FE
:10044000601B710B820B930B00917F021091800255
:100450002091810230918202601771078207930711
:10046000F8F28FEF9FEF1F910F910895FC01918D8E
:10047000828D981731F0828DE80FF11D858D90E007
:1004800008958FEF9FEF0895FC01918D228D892FA4
:1004900090E0805C9F4F821B91098F73992708958C
:1004A0008BE792E00E94440221E0892B09F420E0CE
:1004B000822F089580E090E0892B29F00E9450025D
:1004C00081110C9400000895FC01A48DA80FB92F90
:1004D000B11DA35ABF4F2C91848D90E001968F736C
:1004E0009927848FA689B7892C93A089B1898C918B
:1004F000837080648C93938D848D981306C00288DA
:10050000F389E02D80818F7D80830895EF92FF92A3
:100510000F931F93CF93DF93EC0181E0888F9B8D26
:100520008C8D98131AC0E889F989808185FF15C0E0
:100530009FB7F894EE89FF896083E889F989808103
:100540008370806480839FBF81E090E0DF91CF91D2
:100550001F910F91FF90EF900895F62E0B8D10E0F4
:100560000F5F1F4F0F731127E02E8C8D8E110CC063
:100570000FB607FCFACFE889F989808185FFF5CFAE
:10058000CE010E946402F1CFEB8DEC0FFD2FF11D27
:10059000E35AFF4FF0829FB7F8940B8FEA89FB89EB
:1005A00080818062CFCFCF93DF93EC01888D882349
:1005B000B9F0AA89BB89E889F9898C9185FD03C0C6
:1005C000808186FD0DC00FB607FCF7CF8C9185FFAB
:1005D000F2CF808185FFEDCFCE010E946402E9CF8A
:1005E000DF91CF9108958BE792E00E94D302EBE771
:1005F000F2E0A289B3898C918F7E8C93A289B38912
:100600008C91877F8C93A289B3898C918F778C93FF
:10061000A289B3898C918F7D8C93828D818F08956F
:10062000FC0101900020E9F73197AF01481B590BFD
:10063000BC018BE792E00C94B40181E291E00C9450
:100640001003CF93DF930E941003EC010E941D035F
:100650008C0F9D1FDF91CF9108950F931F93CF9320
:10066000DF93EC0188819981009759F02A813B81C1
:100670002617370730F081E0DF91CF911F910F915E
:1006800008958B016F5F7F4F0E944708009759F0D4
:10069000998388831B830A832C813D81232B59F7FF
:1006A000FC011082E8CF80E0E7CF1F920F920FB6D7
:1006B0000F9211242F933F938F939F93AF93BF93E8
:1006C0008091730290917402A0917502B0917602AC
:1006D0003091720223E0230F2D3758F50196A11DAA
:1006E000B11D209372028093730290937402A093C1
:1006F0007502B09376028091770290917802A09172
:100700007902B0917A020196A11DB11D8093770202
:1007100090937802A0937902B0937A02BF91AF913F
:100720009F918F913F912F910F900FBE0F901F902F
:10073000189526E8230F0296A11DB11DD2CF1F9256
:100740000F920FB60F9211242F933F934F935F9305
:100750006F937F938F939F93AF93BF93EF93FF9389
:100760008BE792E00E946402FF91EF91BF91AF91FD
:100770009F918F917F916F915F914F913F912F91B9
:100780000F900FBE0F901F9018951F920F920FB6EB
:100790000F9211242F938F939F93EF93FF93E091E8
:1007A0008B02F0918C028081E0919102F091920293
:1007B00082FD1BC09081809194028F5F8F73209186
:1007C0009502821741F0E0919402F0E0E558FD4F68
:1007D000958F80939402FF91EF919F918F912F912C
:1007E0000F900FBE0F901F9018958081F4CFCF937C
:1007F000DF93CDB7DEB7A3970FB6F894DEBF0FBE79
:10080000CDBF789484B5826084BD84B5816084BD99
:1008100085B5826085BD85B5816085BD80916E009E
:10082000816080936E0010928100809181008260CF
:10083000809381008091810081608093810080910C
:1008400080008160809380008091B10084608093FB
:10085000B1008091B00081608093B00080917A00F7
:10086000846080937A0080917A00826080937A001D
:1008700080917A00816080937A0080917A0080680C
:1008800080937A001092C100ECE9F0E0249178E8BE
:10089000272E70E0372EF10184918823C9F090E073
:1008A000880F991FFC01E859FF4FA591B491FC01F5
:1008B000E458FF4F459154919FB7F8943C91822F93
:1008C000809583238C93FA018081282B20839FBFFE
:1008D000EDE9F0E02491E9E8F0E08491882399F0D3
:1008E00090E0880F991FFC01E859FF4FA591B49142
:1008F000FC01E458FF4F859194918FB7F894EC91E7
:10090000E22BEC938FBF60E875E280E090E00E94FC
:100910008C0084E291E00E9421038FE391E00E9429
:1009200021038FE491E00E94210386E691E00E947A
:1009300021038FE791E00E9421030E941D0380E0C4
:100940000E94230110927102109270023AE0832EED
:10095000912CA12CB12CCC24C394D12CFF24F39442
:10096000E0EBF0E08491ECE9F0E00491F101149106
:100970001111B4C080916A02811111C0F0926A0213
:100980000E94A801609366027093670280936802D8
:100990009093690280916A02882309F483C01091C0
:1009A00000010E94A801409066025090670260908A
:1009B0006802709069026419750986099709683B95
:1009C0007B408105910508F46DC010926A021123E5
:1009D00009F4FCC0109200010E94F3020E9473010E
:1009E000E0916202F0916302EE0FFF1FEE0FFF1F16
:1009F000E75EFE4F60817181828193810E948C004D
:100A00000E9473018AEC91E00E94210382EE91E042
:100A10000E941003E0916202F0916302EE0FFF1F4B
:100A2000EE0FFF1FE75EFE4F4080518062807380B3
:100A300077FEB6C06DE28BE792E00E948602222725
:100A40003327A901241935094609570919A28E012E
:100A50000F5D1F4FCA01B901A50194010E94FA065A
:100A6000605DF80162938F01211531054105510543
:100A700089F70115110519F0C8010E9410030E94A1
:100A80001D0384EF91E00E9421030E941D0381E079
:100A90000E942301D0927102C092700210926502EE
:100AA0001092640280910001882309F4F9C08091BA
:100AB000700290917102009709F0A8C080E00E9436
:100AC000230180E090E0892B09F44ACF0E94500274
:100AD000882309F443CF0E94000040CF81110E9477
:100AE000FA00E12FF0E0EE0FFF1FEE58FF4FA59147
:100AF000B4919C9180916A02092309F43BCF882329
:100B000089F2109100010E94A80140906602509065
:100B1000670260906802709069026419750986091D
:100B20009709683B7B408105910538F5112329F130
:100B300000916402109165020F5F1F4F10936502D0
:100B40000093640282E090E09093710280937002BF
:100B50000E94A80160936C0270936D0280936E02F4
:100B600090936F020130110559F4109263021092B4
:100B700062028CE991E00E94210310926A020ACF7E
:100B800002301105D4F3D0926302C092620282EB6C
:100B900091E00E9421031092650210926402EDCF51
:100BA000A301920119A28E010F5D1F4FCA01B90165
:100BB000A50194010E94FA06605DF80162938F011D
:100BC000211531054105510589F753CFF0920001F8
:100BD0000E94F3020E94730160E875E280E090E0F9
:100BE0000E948C000E9473018CE092E00E9421031D
:100BF00086E292E00E9421030E941D0380E00E9491
:100C00002301109271021092700248CF8130910539
:100C100011F481E054CF029709F053CF0E94A8014C
:100C200000916C0210916D0220916E0230916F0262
:100C3000601B710B820B930B683C7105810591055C
:100C400008F43FCF0E94A80160936C0270936D027C
:100C500080936E0290936F0280916B028F25809338
:100C60006B022DCF1E821D8263E271E0C9010E94DA
:100C70000D0939C087E592E00E9410034D815E8125
:100C800069817A818BE792E00E94B4010E941D0382
:100C900089819A81009709F414CF0E94BE0711CF71
:100CA0008BE792E00E944402892B09F40ACF1A8252
:100CB00019821C821B821E821D8270E060E0CE01C0
:100CC00001960E942D0329813A818111CBCF2115F4
:100CD000310519F0C9010E94BE071A8219821E82CD
:100CE0001D821C821B820E94040297FDC3CF8A30A2
:100CF000910509F4BFCF8AA31BA20D811E810F5F4E
:100D00001F4FB801CE0101960E942D03882359F38D
:100D100029813A818D819E81BE016E5D7F4F820F58
:100D2000931F0E940D091E830D83DDCFEBE7F2E0D8
:100D30001382128288EE93E0A0E0B0E08483958372
:100D4000A683B7838BE091E09183808385EC90E06C
:100D50009587848784EC90E09787868780EC90E085
:100D6000918B808B81EC90E0938B828B82EC90E076
:100D7000958B848B86EC90E0978B868B118E128EF0
:100D8000138E148E08952F923F924F925F926F921E
:100D90007F928F929F92AF92BF92CF92DF92EF920B
:100DA000FF920F931F93CF93DF93CDB7DEB7CA1B8C
:100DB000DB0B0FB6F894DEBF0FBECDBF09942A88B7
:100DC000398848885F846E847D848C849B84AA845F
:100DD000B984C884DF80EE80FD800C811B81AA81EC
:100DE000B981CE0FD11D0FB6F894DEBF0FBECDBFB7
:100DF000ED010895A1E21A2EAA1BBB1BFD010DC037
:100E0000AA1FBB1FEE1FFF1FA217B307E407F507BA
:100E100020F0A21BB30BE40BF50B661F771F881F96
:100E2000991F1A9469F760957095809590959B012C
:100E3000AC01BD01CF010895EE0FFF1F0590F491A5
:100E4000E02D09940F931F93CF93DF938230910588
:100E500010F482E090E0E0911A03F0911B0330E07F
:100E600020E0B0E0A0E0309799F42115310509F4B5
:100E70004AC0281B390B24303105D8F58A819B8163
:100E80006115710589F1FB0193838283FE0111C015
:100E9000408151810281138148175907E0F04817BA
:100EA000590799F4109761F012960C9312971396C4
:100EB0001C933296CF01DF91CF911F910F9108952E
:100EC00000931A0310931B03F4CF2115310551F041
:100ED0004217530738F0A901DB019A01BD01DF0178
:100EE000F801C1CFEF01F9CF90931B0380931A0350
:100EF000CDCFFE01E20FF31F819391932250310970
:100F000039832883D7CF2091180330911903232BDD
:100F100041F420910301309104013093190320938F
:100F2000180320910101309102012115310541F48E
:100F30002DB73EB74091050150910601241B350B9A
:100F4000E0911803F0911903E217F307A0F42E1BA8
:100F50003F0B2817390778F0AC014E5F5F4F24171D
:100F6000350748F04E0F5F1F509319034093180345
:100F7000819391939FCFF0E0E0E09CCFCF93DF93FC
:100F80000097E9F0FC01329713821282A0911A03B4
:100F9000B0911B03ED0130E020E01097A1F4208117
:100FA0003181820F931F2091180330911903281764
:100FB000390709F061C0F0931903E0931803DF913A
:100FC000CF910895EA01CE17DF07E8F54A815B81EA
:100FD0009E0141155105B1F7E901FB83EA8349916F
:100FE0005991C40FD51FEC17FD0761F480819181E1
:100FF0000296840F951FE9019983888382819381EA
:101000009B838A83F0E0E0E012968D919C91139788
:101010000097B9F52D913C911197CD010296820F61
:10102000931F20911803309119032817390739F6B7
:10103000309751F510921B0310921A03B0931903C5
:10104000A0931803BCCFD383C28340815181840F06
:10105000951FC817D90761F44E5F5F4F888199814A
:10106000480F591F518340838A819B8193838283D8
:101070002115310509F0B0CFF0931B03E0931A035B
:101080009ECFFD01DC01C0CF13821282D7CFB0E02A
:10109000A0E0EDE4F8E00C94C5068C01009751F453
:1010A000CB010E9422078C01C801CDB7DEB7E0E179
:1010B0000C94E106FC01E60FF71F9C012250310958
:1010C000E217F30708F49DC0D901CD91DC91119787
:1010D000C617D70798F0C530D10530F3CE01049775
:1010E0008617970708F3C61BD70B2297C193D19396
:1010F0006D937C93CF010E94BE07D6CF5B01AC1AE3
:10110000BD0A4C018C0E9D1EA0911A03B0911B03C9
:10111000512C412CF12CE12C109731F580911803C2
:10112000909119038815990509F05CC04616570679
:1011300008F058C08091010190910201009741F49C
:101140008DB79EB74091050150910601841B950B08
:10115000E817F90708F055C0F0931903E093180356
:10116000F90171836083A0CF8D919C9111971296A4
:101170006C90129713967C901397A815B90559F5A2
:101180006C0142E0C40ED11CCA14DB0420F1AC0196
:101190004A195B09DA011296159780F06282738210
:1011A00051834083D9016D937C93E114F10471F074
:1011B000D7011396FC93EE93129776CF22968C0F5D
:1011C0009D1FF90191838083F301EFCFF0931B03FF
:1011D000E0931A0369CF4816590608F42C017D01E3
:1011E000D3019ACFCB010E9422077C01009749F0DE
:1011F000AE01B8010E940409C8010E94BE07870120
:1012000053CF10E000E050CFFB01DC0102C00190A1
:101210000D9241505040D8F70895FB01DC01019038
:0C1220000D920020E1F70895F894FFCF34
:10122C000100001C038000000000008602B401E1F4
:10123C0001D3024402F00136028025000000C201F5
:10124C00000D0A003D3D3D205541525420434F4E68
:10125C0046494755524154494F4E203D3D3D004271
:10126C007574746F6E20616374696F6E733A0020CD
:10127C00203120636C69636B20202D3E2039363081
:10128C0030206270730020203220636C69636B73B2
:10129C00202D3E20313135323030206270730020E9
:1012AC0020486F6C64203E3373202D3E20436F6EBC
:1012BC006669726D2F537769746368003E3E2053E4
:1012CC00656C65637465643A203936303020627021
:1012DC0073003E3E2053656C65637465643A20313F
:1012EC00313532303020627073000A3D3D3D204F65
:1012FC005045524154494F4E204D4F4445203D3DA1
:10130C003D00416374697665204261756472617455
:10131C00653A2000486F6C64203E337320746F2054
:10132C007265636F6E666967757265000A3D3D3D57
:10133C002052455455524E20544F20434F4E46494F
:10134C0047203D3D3D003120636C69636B3A203989
:10135C00363030207C203220636C69636B733A200A
:10136C00313135323030207C20486F6C643A204368
:10137C006F6E6669726D0052656365697665643A75
:02138C0020003F
:00000001FF
